{
  "address": "0x81Eb558A49A795E6147D3c86084C453f5a12A964",
  "abi": [
    {
      "inputs": [
        {
          "internalType": "address",
          "name": "signer",
          "type": "address"
        }
      ],
      "stateMutability": "nonpayable",
      "type": "constructor"
    },
    {
      "inputs": [],
      "name": "Error_Age",
      "type": "error"
    },
    {
      "inputs": [],
      "name": "Error_Country",
      "type": "error"
    },
    {
      "inputs": [],
      "name": "Error_Deadline",
      "type": "error"
    },
    {
      "inputs": [],
      "name": "Error_InsufficientValue",
      "type": "error"
    },
    {
      "inputs": [],
      "name": "Error_InvalidLength",
      "type": "error"
    },
    {
      "inputs": [],
      "name": "Error_InvalidSigner",
      "type": "error"
    },
    {
      "inputs": [],
      "name": "Error_Timestamp",
      "type": "error"
    },
    {
      "inputs": [],
      "name": "Error_TransferFailed",
      "type": "error"
    },
    {
      "anonymous": false,
      "inputs": [
        {
          "indexed": true,
          "internalType": "address",
          "name": "purchaser",
          "type": "address"
        },
        {
          "indexed": false,
          "internalType": "uint256",
          "name": "amount",
          "type": "uint256"
        }
      ],
      "name": "ItemSold",
      "type": "event"
    },
    {
      "anonymous": false,
      "inputs": [
        {
          "indexed": true,
          "internalType": "address",
          "name": "previousOwner",
          "type": "address"
        },
        {
          "indexed": true,
          "internalType": "address",
          "name": "newOwner",
          "type": "address"
        }
      ],
      "name": "OwnershipTransferred",
      "type": "event"
    },
    {
      "anonymous": false,
      "inputs": [
        {
          "indexed": true,
          "internalType": "address",
          "name": "signer",
          "type": "address"
        },
        {
          "indexed": false,
          "internalType": "bool",
          "name": "isSigner",
          "type": "bool"
        }
      ],
      "name": "SingerUpdated",
      "type": "event"
    },
    {
      "inputs": [],
      "name": "PRICE",
      "outputs": [
        {
          "internalType": "uint256",
          "name": "",
          "type": "uint256"
        }
      ],
      "stateMutability": "view",
      "type": "function"
    },
    {
      "inputs": [],
      "name": "beneficiary",
      "outputs": [
        {
          "internalType": "address",
          "name": "",
          "type": "address"
        }
      ],
      "stateMutability": "view",
      "type": "function"
    },
    {
      "inputs": [
        {
          "internalType": "uint256",
          "name": "amount",
          "type": "uint256"
        }
      ],
      "name": "buyItem",
      "outputs": [],
      "stateMutability": "payable",
      "type": "function"
    },
    {
      "inputs": [],
      "name": "getAge",
      "outputs": [
        {
          "internalType": "uint256",
          "name": "",
          "type": "uint256"
        }
      ],
      "stateMutability": "view",
      "type": "function"
    },
    {
      "inputs": [],
      "name": "getCountry",
      "outputs": [
        {
          "internalType": "uint256",
          "name": "",
          "type": "uint256"
        }
      ],
      "stateMutability": "view",
      "type": "function"
    },
    {
      "inputs": [],
      "name": "getId",
      "outputs": [
        {
          "internalType": "bytes32",
          "name": "",
          "type": "bytes32"
        }
      ],
      "stateMutability": "view",
      "type": "function"
    },
    {
      "inputs": [],
      "name": "getKycData",
      "outputs": [
        {
          "components": [
            {
              "internalType": "bytes32",
              "name": "id",
              "type": "bytes32"
            },
            {
              "internalType": "uint8",
              "name": "age",
              "type": "uint8"
            },
            {
              "internalType": "uint16",
              "name": "country",
              "type": "uint16"
            },
            {
              "internalType": "uint32",
              "name": "timestamp",
              "type": "uint32"
            }
          ],
          "internalType": "struct Data.Kyc",
          "name": "",
          "type": "tuple"
        }
      ],
      "stateMutability": "view",
      "type": "function"
    },
    {
      "inputs": [],
      "name": "getMaxDeadline",
      "outputs": [
        {
          "internalType": "uint256",
          "name": "",
          "type": "uint256"
        }
      ],
      "stateMutability": "pure",
      "type": "function"
    },
    {
      "inputs": [],
      "name": "getTimestamp",
      "outputs": [
        {
          "internalType": "uint256",
          "name": "",
          "type": "uint256"
        }
      ],
      "stateMutability": "view",
      "type": "function"
    },
    {
      "inputs": [],
      "name": "owner",
      "outputs": [
        {
          "internalType": "address",
          "name": "",
          "type": "address"
        }
      ],
      "stateMutability": "view",
      "type": "function"
    },
    {
      "inputs": [],
      "name": "renounceOwnership",
      "outputs": [],
      "stateMutability": "nonpayable",
      "type": "function"
    },
    {
      "inputs": [
        {
          "internalType": "address",
          "name": "signer",
          "type": "address"
        },
        {
          "internalType": "bool",
          "name": "isSinger",
          "type": "bool"
        }
      ],
      "name": "setSigner",
      "outputs": [],
      "stateMutability": "nonpayable",
      "type": "function"
    },
    {
      "inputs": [
        {
          "internalType": "address",
          "name": "newOwner",
          "type": "address"
        }
      ],
      "name": "transferOwnership",
      "outputs": [],
      "stateMutability": "nonpayable",
      "type": "function"
    },
    {
      "inputs": [],
      "name": "withdraw",
      "outputs": [],
      "stateMutability": "nonpayable",
      "type": "function"
    }
  ],
  "transactionHash": "0x284b160170017086eedd2eb6b4c54161c1032ff81ef8f730d457843844891a70",
  "args": [
    "0x329c78010eA2F6B1F508d0ab05Fc195B2829FD5D"
  ],
  "solcInputHash": "d96cbd8fe6a1d97a7ad51b8458d8d231",
  "bytecode": "0x608060405234801561001057600080fd5b5060405161140938038061140983398101604081905261002f9161013c565b610038336100ec565b600160208181527fcc69885fda6bcc1a4ace058b4a62bf5e179ea78fd58a1ccd71c22cc9b688792f805460ff1990811684179091557fd9d16d34ffb15ba3a3d852f0d403e2ce1d691fb54de27ac87cd2f993f3ec330f80548216841790556001600160a01b0384166000818152604090819020805490931685179092559051928352917fc0e8f4beb7321816d8c73fe84fc3f3e15d6da5bf452d5740fa366f9b15a600f8910160405180910390a25061016c565b600080546001600160a01b038381166001600160a01b0319831681178455604051919092169283917f8be0079c531659141344cd1fd0a4f28419497f9722a3daafe3b4186f6b6457e09190a35050565b60006020828403121561014e57600080fd5b81516001600160a01b038116811461016557600080fd5b9392505050565b61128e8061017b6000396000f3fe6080604052600436106100dd5760003560e01c80638d859f3e1161007f578063967e6e6511610059578063967e6e651461026d5780639e0c3ead14610282578063e7fb74c714610297578063f2fde38b146102aa57600080fd5b80638d859f3e146101d25780638da5cb5b146101ed578063919f980f1461021857600080fd5b80633ccfd60b116100bb5780633ccfd60b1461017e5780635d1ca631146101935780636bd64c3a146101a8578063715018a6146101bd57600080fd5b8063188ec356146100e257806331cb61051461010a57806338af3eed1461012c575b600080fd5b3480156100ee57600080fd5b506100f76102ca565b6040519081526020015b60405180910390f35b34801561011657600080fd5b5061012a610125366004610f5e565b6102e3565b005b34801561013857600080fd5b506002546101599073ffffffffffffffffffffffffffffffffffffffff1681565b60405173ffffffffffffffffffffffffffffffffffffffff9091168152602001610101565b34801561018a57600080fd5b5061012a610375565b34801561019f57600080fd5b506100f7610402565b3480156101b457600080fd5b506102586100f7565b3480156101c957600080fd5b5061012a610412565b3480156101de57600080fd5b506100f7662386f26fc1000081565b3480156101f957600080fd5b5060005473ffffffffffffffffffffffffffffffffffffffff16610159565b34801561022457600080fd5b5061022d610426565b60405161010191908151815260208083015160ff169082015260408083015161ffff169082015260609182015163ffffffff169181019190915260800190565b34801561027957600080fd5b506100f761046a565b34801561028e57600080fd5b506100f7610480565b61012a6102a5366004610f9a565b610497565b3480156102b657600080fd5b5061012a6102c5366004610fb3565b610521565b60006102d4610426565b6060015163ffffffff16905090565b6102eb6105da565b73ffffffffffffffffffffffffffffffffffffffff821660008181526001602090815260409182902080547fffffffffffffffffffffffffffffffffffffffffffffffffffffffffffffff001685151590811790915591519182527fc0e8f4beb7321816d8c73fe84fc3f3e15d6da5bf452d5740fa366f9b15a600f8910160405180910390a25050565b61037d6105da565b604051600090339047908381818185875af1925050503d80600081146103bf576040519150601f19603f3d011682016040523d82523d6000602084013e6103c4565b606091505b50509050806103ff576040517f650926a600000000000000000000000000000000000000000000000000000000815260040160405180910390fd5b50565b600061040c610426565b51919050565b61041a6105da565b610424600061065b565b565b6040805160808101825260008082526020820181905291810182905260608101919091523660006104556106d0565b91509150610463828261082a565b9250505090565b6000610474610426565b6020015160ff16905090565b600061048a610426565b6040015161ffff16905090565b61049f610913565b6104b0662386f26fc1000082611004565b3410156104e9576040517f90bdf79500000000000000000000000000000000000000000000000000000000815260040160405180910390fd5b60405181815233907fc8edef1fc414675e55c5a6ea7d9d6547df463b23dbdfc36ecaad361408c0894c9060200160405180910390a250565b6105296105da565b73ffffffffffffffffffffffffffffffffffffffff81166105d1576040517f08c379a000000000000000000000000000000000000000000000000000000000815260206004820152602660248201527f4f776e61626c653a206e6577206f776e657220697320746865207a65726f206160448201527f646472657373000000000000000000000000000000000000000000000000000060648201526084015b60405180910390fd5b6103ff8161065b565b60005473ffffffffffffffffffffffffffffffffffffffff163314610424576040517f08c379a000000000000000000000000000000000000000000000000000000000815260206004820181905260248201527f4f776e61626c653a2063616c6c6572206973206e6f7420746865206f776e657260448201526064016105c8565b6000805473ffffffffffffffffffffffffffffffffffffffff8381167fffffffffffffffffffffffff0000000000000000000000000000000000000000831681178455604051919092169283917f8be0079c531659141344cd1fd0a4f28419497f9722a3daafe3b4186f6b6457e09190a35050565b366000806106df604184611041565b905060006106ee600483611041565b905060006106fd600183611041565b9050600080833661070f826004611058565b9261071c93929190611070565b6107259161109a565b60e01c9050610733816109fa565b6000808336610743826001611058565b9261075093929190611070565b610759916110e2565b60f81c9050600061076b826020611128565b610776906001611152565b610781906004611152565b61ffff16905060006107938288611041565b90503660008083836107a58783611058565b926107b293929190611070565b90925090503660006107c6828c8184611070565b915091506107d684848484610a49565b60006107e660ff89166020611128565b61ffff16905060006107f8828c611041565b9050600081366108088583611058565b9261081593929190611070565b9e509e50505050505050505050505050509091565b60408051608081018252600080825260208201819052918101829052606081019190915260808214610888576040517ffe68f10700000000000000000000000000000000000000000000000000000000815260040160405180910390fd5b6040805160808101909152806108a2602060008688611070565b6108ab91611178565b81526020016108be6040603f8688611070565b6108c7916110e2565b60f81c81526020016108dd6060605e8688611070565b6108e6916111b4565b60f01c81526020016108fc6080607c8688611070565b6109059161109a565b60e01c905290505b92915050565b600061091d610426565b90506012816020015160ff161015610961576040517f1fa58a9b00000000000000000000000000000000000000000000000000000000815260040160405180910390fd5b604081015160019061ffff1681146109a5576040517f88cd5e0e00000000000000000000000000000000000000000000000000000000815260040160405180910390fd5b60608201516109b790620151806111fa565b63ffffffff164211156109f6576040517f2d3de50100000000000000000000000000000000000000000000000000000000815260040160405180910390fd5b5050565b80421180610a12575042610a1061025883611041565b115b156103ff576040517f1d5e332f00000000000000000000000000000000000000000000000000000000815260040160405180910390fd5b60008484604051610a5b929190611219565b6040519081900381207f19457468657265756d205369676e6564204d6573736167653a0a3332000000006020830152603c82018190529150600090605c016040516020818303038152906040528051906020012090506000610af585858080601f0160208091040260200160405190810160405280939291908181526020018383808284376000920191909152508693925050610b609050565b73ffffffffffffffffffffffffffffffffffffffff811660009081526001602052604090205490915060ff16610b57576040517fec265eb800000000000000000000000000000000000000000000000000000000815260040160405180910390fd5b50505050505050565b6000806000610b6f8585610b84565b91509150610b7c81610bc9565b509392505050565b6000808251604103610bba5760208301516040840151606085015160001a610bae87828585610e1d565b94509450505050610bc2565b506000905060025b9250929050565b6000816004811115610bdd57610bdd611229565b03610be55750565b6001816004811115610bf957610bf9611229565b03610c60576040517f08c379a000000000000000000000000000000000000000000000000000000000815260206004820152601860248201527f45434453413a20696e76616c6964207369676e6174757265000000000000000060448201526064016105c8565b6002816004811115610c7457610c74611229565b03610cdb576040517f08c379a000000000000000000000000000000000000000000000000000000000815260206004820152601f60248201527f45434453413a20696e76616c6964207369676e6174757265206c656e6774680060448201526064016105c8565b6003816004811115610cef57610cef611229565b03610d7c576040517f08c379a000000000000000000000000000000000000000000000000000000000815260206004820152602260248201527f45434453413a20696e76616c6964207369676e6174757265202773272076616c60448201527f756500000000000000000000000000000000000000000000000000000000000060648201526084016105c8565b6004816004811115610d9057610d90611229565b036103ff576040517f08c379a000000000000000000000000000000000000000000000000000000000815260206004820152602260248201527f45434453413a20696e76616c6964207369676e6174757265202776272076616c60448201527f756500000000000000000000000000000000000000000000000000000000000060648201526084016105c8565b6000807f7fffffffffffffffffffffffffffffff5d576e7357a4501ddfe92f46681b20a0831115610e545750600090506003610f2c565b8460ff16601b14158015610e6c57508460ff16601c14155b15610e7d5750600090506004610f2c565b6040805160008082526020820180845289905260ff881692820192909252606081018690526080810185905260019060a0016020604051602081039080840390855afa158015610ed1573d6000803e3d6000fd5b50506040517fffffffffffffffffffffffffffffffffffffffffffffffffffffffffffffffe0015191505073ffffffffffffffffffffffffffffffffffffffff8116610f2557600060019250925050610f2c565b9150600090505b94509492505050565b803573ffffffffffffffffffffffffffffffffffffffff81168114610f5957600080fd5b919050565b60008060408385031215610f7157600080fd5b610f7a83610f35565b915060208301358015158114610f8f57600080fd5b809150509250929050565b600060208284031215610fac57600080fd5b5035919050565b600060208284031215610fc557600080fd5b610fce82610f35565b9392505050565b7f4e487b7100000000000000000000000000000000000000000000000000000000600052601160045260246000fd5b6000817fffffffffffffffffffffffffffffffffffffffffffffffffffffffffffffffff048311821515161561103c5761103c610fd5565b500290565b60008282101561105357611053610fd5565b500390565b6000821982111561106b5761106b610fd5565b500190565b6000808585111561108057600080fd5b8386111561108d57600080fd5b5050820193919092039150565b7fffffffff0000000000000000000000000000000000000000000000000000000081358181169160048510156110da5780818660040360031b1b83161692505b505092915050565b7fff0000000000000000000000000000000000000000000000000000000000000081358181169160018510156110da5760019490940360031b84901b1690921692915050565b600061ffff8083168185168183048111821515161561114957611149610fd5565b02949350505050565b600061ffff80831681851680830382111561116f5761116f610fd5565b01949350505050565b8035602083101561090d577fffffffffffffffffffffffffffffffffffffffffffffffffffffffffffffffff602084900360031b1b1692915050565b7fffff00000000000000000000000000000000000000000000000000000000000081358181169160028510156110da5760029490940360031b84901b1690921692915050565b600063ffffffff80831681851680830382111561116f5761116f610fd5565b8183823760009101908152919050565b7f4e487b7100000000000000000000000000000000000000000000000000000000600052602160045260246000fdfea2646970667358221220b21f45fd72d0bdb02cee86972fc4adf95af356efc5f39da4591507f4286c6cea64736f6c634300080f0033",
  "devdoc": {
    "kind": "dev",
    "methods": {
      "owner()": {
        "details": "Returns the address of the current owner."
      },
      "renounceOwnership()": {
        "details": "Leaves the contract without owner. It will not be possible to call `onlyOwner` functions anymore. Can only be called by the current owner. NOTE: Renouncing ownership will leave the contract without an owner, thereby removing any functionality that is only available to the owner."
      },
      "transferOwnership(address)": {
        "details": "Transfers ownership of the contract to a new account (`newOwner`). Can only be called by the current owner."
      }
    },
    "version": 1
  },
  "userdoc": {
    "kind": "user",
    "methods": {},
    "version": 1
  },
  "storageLayout": {
    "storage": [
      {
        "astId": 7,
        "contract": "contracts/kyc3-example/AgeCountryRestrictedShop.sol:AgeCountryRestrictedShop",
        "label": "_owner",
        "offset": 0,
        "slot": "0",
        "type": "t_address"
      },
      {
        "astId": 882,
        "contract": "contracts/kyc3-example/AgeCountryRestrictedShop.sol:AgeCountryRestrictedShop",
        "label": "_signers",
        "offset": 0,
        "slot": "1",
        "type": "t_mapping(t_address,t_bool)"
      },
      {
        "astId": 3067,
        "contract": "contracts/kyc3-example/AgeCountryRestrictedShop.sol:AgeCountryRestrictedShop",
        "label": "beneficiary",
        "offset": 0,
        "slot": "2",
        "type": "t_address"
      }
    ],
    "types": {
      "t_address": {
        "encoding": "inplace",
        "label": "address",
        "numberOfBytes": "20"
      },
      "t_bool": {
        "encoding": "inplace",
        "label": "bool",
        "numberOfBytes": "1"
      },
      "t_mapping(t_address,t_bool)": {
        "encoding": "mapping",
        "key": "t_address",
        "label": "mapping(address => bool)",
        "numberOfBytes": "32",
        "value": "t_bool"
      }
    }
  }
}