{
  "address": "0x1d40d657e9551D0cd7f807D6ad1f11694767e0cB",
  "abi": [
    {
      "inputs": [
        {
          "internalType": "uint256",
          "name": "startTime",
          "type": "uint256"
        },
        {
          "internalType": "address",
          "name": "signer",
          "type": "address"
        }
      ],
      "stateMutability": "nonpayable",
      "type": "constructor"
    },
    {
      "inputs": [],
      "name": "ApprovalCallerNotOwnerNorApproved",
      "type": "error"
    },
    {
      "inputs": [],
      "name": "ApprovalQueryForNonexistentToken",
      "type": "error"
    },
    {
      "inputs": [],
      "name": "BalanceQueryForZeroAddress",
      "type": "error"
    },
    {
      "inputs": [],
      "name": "Error_Cooldown",
      "type": "error"
    },
    {
      "inputs": [],
      "name": "Error_Deadline",
      "type": "error"
    },
    {
      "inputs": [],
      "name": "Error_InsufficientValue",
      "type": "error"
    },
    {
      "inputs": [],
      "name": "Error_InvalidLength",
      "type": "error"
    },
    {
      "inputs": [],
      "name": "Error_InvalidSigner",
      "type": "error"
    },
    {
      "inputs": [],
      "name": "Error_MaxSupply",
      "type": "error"
    },
    {
      "inputs": [],
      "name": "Error_SaleNotStarted",
      "type": "error"
    },
    {
      "inputs": [],
      "name": "Error_Timestamp",
      "type": "error"
    },
    {
      "inputs": [],
      "name": "Error_TransferFailed",
      "type": "error"
    },
    {
      "inputs": [],
      "name": "MintERC2309QuantityExceedsLimit",
      "type": "error"
    },
    {
      "inputs": [],
      "name": "MintToZeroAddress",
      "type": "error"
    },
    {
      "inputs": [],
      "name": "MintZeroQuantity",
      "type": "error"
    },
    {
      "inputs": [],
      "name": "OwnerQueryForNonexistentToken",
      "type": "error"
    },
    {
      "inputs": [],
      "name": "OwnershipNotInitializedForExtraData",
      "type": "error"
    },
    {
      "inputs": [],
      "name": "TransferCallerNotOwnerNorApproved",
      "type": "error"
    },
    {
      "inputs": [],
      "name": "TransferFromIncorrectOwner",
      "type": "error"
    },
    {
      "inputs": [],
      "name": "TransferToNonERC721ReceiverImplementer",
      "type": "error"
    },
    {
      "inputs": [],
      "name": "TransferToZeroAddress",
      "type": "error"
    },
    {
      "inputs": [],
      "name": "URIQueryForNonexistentToken",
      "type": "error"
    },
    {
      "anonymous": false,
      "inputs": [
        {
          "indexed": true,
          "internalType": "address",
          "name": "owner",
          "type": "address"
        },
        {
          "indexed": true,
          "internalType": "address",
          "name": "approved",
          "type": "address"
        },
        {
          "indexed": true,
          "internalType": "uint256",
          "name": "tokenId",
          "type": "uint256"
        }
      ],
      "name": "Approval",
      "type": "event"
    },
    {
      "anonymous": false,
      "inputs": [
        {
          "indexed": true,
          "internalType": "address",
          "name": "owner",
          "type": "address"
        },
        {
          "indexed": true,
          "internalType": "address",
          "name": "operator",
          "type": "address"
        },
        {
          "indexed": false,
          "internalType": "bool",
          "name": "approved",
          "type": "bool"
        }
      ],
      "name": "ApprovalForAll",
      "type": "event"
    },
    {
      "anonymous": false,
      "inputs": [
        {
          "indexed": true,
          "internalType": "uint256",
          "name": "fromTokenId",
          "type": "uint256"
        },
        {
          "indexed": false,
          "internalType": "uint256",
          "name": "toTokenId",
          "type": "uint256"
        },
        {
          "indexed": true,
          "internalType": "address",
          "name": "from",
          "type": "address"
        },
        {
          "indexed": true,
          "internalType": "address",
          "name": "to",
          "type": "address"
        }
      ],
      "name": "ConsecutiveTransfer",
      "type": "event"
    },
    {
      "anonymous": false,
      "inputs": [
        {
          "indexed": true,
          "internalType": "address",
          "name": "previousOwner",
          "type": "address"
        },
        {
          "indexed": true,
          "internalType": "address",
          "name": "newOwner",
          "type": "address"
        }
      ],
      "name": "OwnershipTransferred",
      "type": "event"
    },
    {
      "anonymous": false,
      "inputs": [
        {
          "indexed": true,
          "internalType": "address",
          "name": "signer",
          "type": "address"
        },
        {
          "indexed": false,
          "internalType": "bool",
          "name": "isSigner",
          "type": "bool"
        }
      ],
      "name": "SingerUpdated",
      "type": "event"
    },
    {
      "anonymous": false,
      "inputs": [
        {
          "indexed": true,
          "internalType": "address",
          "name": "from",
          "type": "address"
        },
        {
          "indexed": true,
          "internalType": "address",
          "name": "to",
          "type": "address"
        },
        {
          "indexed": true,
          "internalType": "uint256",
          "name": "tokenId",
          "type": "uint256"
        }
      ],
      "name": "Transfer",
      "type": "event"
    },
    {
      "inputs": [],
      "name": "COOLDOWN_TIME",
      "outputs": [
        {
          "internalType": "uint256",
          "name": "",
          "type": "uint256"
        }
      ],
      "stateMutability": "view",
      "type": "function"
    },
    {
      "inputs": [],
      "name": "MAX_SUPPLY",
      "outputs": [
        {
          "internalType": "uint256",
          "name": "",
          "type": "uint256"
        }
      ],
      "stateMutability": "view",
      "type": "function"
    },
    {
      "inputs": [],
      "name": "PRICE_PER_TOKEN",
      "outputs": [
        {
          "internalType": "uint256",
          "name": "",
          "type": "uint256"
        }
      ],
      "stateMutability": "view",
      "type": "function"
    },
    {
      "inputs": [],
      "name": "START_TIME",
      "outputs": [
        {
          "internalType": "uint256",
          "name": "",
          "type": "uint256"
        }
      ],
      "stateMutability": "view",
      "type": "function"
    },
    {
      "inputs": [
        {
          "internalType": "address",
          "name": "to",
          "type": "address"
        },
        {
          "internalType": "uint256",
          "name": "tokenId",
          "type": "uint256"
        }
      ],
      "name": "approve",
      "outputs": [],
      "stateMutability": "payable",
      "type": "function"
    },
    {
      "inputs": [
        {
          "internalType": "address",
          "name": "owner",
          "type": "address"
        }
      ],
      "name": "balanceOf",
      "outputs": [
        {
          "internalType": "uint256",
          "name": "",
          "type": "uint256"
        }
      ],
      "stateMutability": "view",
      "type": "function"
    },
    {
      "inputs": [
        {
          "internalType": "bytes32",
          "name": "",
          "type": "bytes32"
        }
      ],
      "name": "cooldown",
      "outputs": [
        {
          "internalType": "uint256",
          "name": "",
          "type": "uint256"
        }
      ],
      "stateMutability": "view",
      "type": "function"
    },
    {
      "inputs": [
        {
          "internalType": "uint256",
          "name": "tokenId",
          "type": "uint256"
        }
      ],
      "name": "getApproved",
      "outputs": [
        {
          "internalType": "address",
          "name": "",
          "type": "address"
        }
      ],
      "stateMutability": "view",
      "type": "function"
    },
    {
      "inputs": [],
      "name": "getId",
      "outputs": [
        {
          "internalType": "bytes32",
          "name": "",
          "type": "bytes32"
        }
      ],
      "stateMutability": "view",
      "type": "function"
    },
    {
      "inputs": [],
      "name": "getMaxDeadline",
      "outputs": [
        {
          "internalType": "uint256",
          "name": "",
          "type": "uint256"
        }
      ],
      "stateMutability": "pure",
      "type": "function"
    },
    {
      "inputs": [],
      "name": "getTimestamp",
      "outputs": [
        {
          "internalType": "uint256",
          "name": "",
          "type": "uint256"
        }
      ],
      "stateMutability": "view",
      "type": "function"
    },
    {
      "inputs": [],
      "name": "getWhitelistData",
      "outputs": [
        {
          "components": [
            {
              "internalType": "bytes32",
              "name": "id",
              "type": "bytes32"
            },
            {
              "internalType": "uint32",
              "name": "timestamp",
              "type": "uint32"
            }
          ],
          "internalType": "struct Data.Whitelist",
          "name": "",
          "type": "tuple"
        }
      ],
      "stateMutability": "view",
      "type": "function"
    },
    {
      "inputs": [
        {
          "internalType": "address",
          "name": "owner",
          "type": "address"
        },
        {
          "internalType": "address",
          "name": "operator",
          "type": "address"
        }
      ],
      "name": "isApprovedForAll",
      "outputs": [
        {
          "internalType": "bool",
          "name": "",
          "type": "bool"
        }
      ],
      "stateMutability": "view",
      "type": "function"
    },
    {
      "inputs": [],
      "name": "mint",
      "outputs": [],
      "stateMutability": "payable",
      "type": "function"
    },
    {
      "inputs": [],
      "name": "name",
      "outputs": [
        {
          "internalType": "string",
          "name": "",
          "type": "string"
        }
      ],
      "stateMutability": "view",
      "type": "function"
    },
    {
      "inputs": [],
      "name": "owner",
      "outputs": [
        {
          "internalType": "address",
          "name": "",
          "type": "address"
        }
      ],
      "stateMutability": "view",
      "type": "function"
    },
    {
      "inputs": [
        {
          "internalType": "uint256",
          "name": "tokenId",
          "type": "uint256"
        }
      ],
      "name": "ownerOf",
      "outputs": [
        {
          "internalType": "address",
          "name": "",
          "type": "address"
        }
      ],
      "stateMutability": "view",
      "type": "function"
    },
    {
      "inputs": [],
      "name": "renounceOwnership",
      "outputs": [],
      "stateMutability": "nonpayable",
      "type": "function"
    },
    {
      "inputs": [
        {
          "internalType": "address",
          "name": "from",
          "type": "address"
        },
        {
          "internalType": "address",
          "name": "to",
          "type": "address"
        },
        {
          "internalType": "uint256",
          "name": "tokenId",
          "type": "uint256"
        }
      ],
      "name": "safeTransferFrom",
      "outputs": [],
      "stateMutability": "payable",
      "type": "function"
    },
    {
      "inputs": [
        {
          "internalType": "address",
          "name": "from",
          "type": "address"
        },
        {
          "internalType": "address",
          "name": "to",
          "type": "address"
        },
        {
          "internalType": "uint256",
          "name": "tokenId",
          "type": "uint256"
        },
        {
          "internalType": "bytes",
          "name": "_data",
          "type": "bytes"
        }
      ],
      "name": "safeTransferFrom",
      "outputs": [],
      "stateMutability": "payable",
      "type": "function"
    },
    {
      "inputs": [
        {
          "internalType": "address",
          "name": "operator",
          "type": "address"
        },
        {
          "internalType": "bool",
          "name": "approved",
          "type": "bool"
        }
      ],
      "name": "setApprovalForAll",
      "outputs": [],
      "stateMutability": "nonpayable",
      "type": "function"
    },
    {
      "inputs": [
        {
          "internalType": "string",
          "name": "baseURI",
          "type": "string"
        }
      ],
      "name": "setBaseURI",
      "outputs": [],
      "stateMutability": "nonpayable",
      "type": "function"
    },
    {
      "inputs": [
        {
          "internalType": "address",
          "name": "signer",
          "type": "address"
        },
        {
          "internalType": "bool",
          "name": "isSinger",
          "type": "bool"
        }
      ],
      "name": "setSigner",
      "outputs": [],
      "stateMutability": "nonpayable",
      "type": "function"
    },
    {
      "inputs": [
        {
          "internalType": "bytes4",
          "name": "interfaceId",
          "type": "bytes4"
        }
      ],
      "name": "supportsInterface",
      "outputs": [
        {
          "internalType": "bool",
          "name": "",
          "type": "bool"
        }
      ],
      "stateMutability": "view",
      "type": "function"
    },
    {
      "inputs": [],
      "name": "symbol",
      "outputs": [
        {
          "internalType": "string",
          "name": "",
          "type": "string"
        }
      ],
      "stateMutability": "view",
      "type": "function"
    },
    {
      "inputs": [
        {
          "internalType": "uint256",
          "name": "tokenId",
          "type": "uint256"
        }
      ],
      "name": "tokenURI",
      "outputs": [
        {
          "internalType": "string",
          "name": "",
          "type": "string"
        }
      ],
      "stateMutability": "view",
      "type": "function"
    },
    {
      "inputs": [],
      "name": "totalSupply",
      "outputs": [
        {
          "internalType": "uint256",
          "name": "",
          "type": "uint256"
        }
      ],
      "stateMutability": "view",
      "type": "function"
    },
    {
      "inputs": [
        {
          "internalType": "address",
          "name": "from",
          "type": "address"
        },
        {
          "internalType": "address",
          "name": "to",
          "type": "address"
        },
        {
          "internalType": "uint256",
          "name": "tokenId",
          "type": "uint256"
        }
      ],
      "name": "transferFrom",
      "outputs": [],
      "stateMutability": "payable",
      "type": "function"
    },
    {
      "inputs": [
        {
          "internalType": "address",
          "name": "newOwner",
          "type": "address"
        }
      ],
      "name": "transferOwnership",
      "outputs": [],
      "stateMutability": "nonpayable",
      "type": "function"
    },
    {
      "inputs": [],
      "name": "withdraw",
      "outputs": [],
      "stateMutability": "nonpayable",
      "type": "function"
    }
  ],
  "transactionHash": "0xf1f0fdefc30e6d8cf95bb3c4cae20585e0595e5b1ea067760e3bd1abe0bfe091",
  "args": [
    1667080800,
    "0x329c78010eA2F6B1F508d0ab05Fc195B2829FD5D"
  ],
  "solcInputHash": "d96cbd8fe6a1d97a7ad51b8458d8d231",
  "bytecode": "0x60a06040523480156200001157600080fd5b50604051620029d8380380620029d88339810160408190526200003491620001dc565b6040518060400160405280601381526020017f4554484c6973626f6e204861636b6174686f6e000000000000000000000000008152506040518060400160405280600981526020016822aa242634b9b137b760b91b815250620000a6620000a06200018860201b60201c565b6200018c565b6003620000b48382620002c0565b506004620000c38282620002c0565b5060006001908155600960209081527f92e85d02570a8092d09a6e3a57665bc3815a2699a4074001bf1ccabf660f5a36805460ff1990811684179091557f6cde3cea4b3a3fb2488b2808bae7556f4a405e50f65e1794383bc026131b13c3805482168417905560808790526001600160a01b038616600081815260409081902080549093168517909255905192835293507fc0e8f4beb7321816d8c73fe84fc3f3e15d6da5bf452d5740fa366f9b15a600f892500160405180910390a250506200038c565b3390565b600080546001600160a01b038381166001600160a01b0319831681178455604051919092169283917f8be0079c531659141344cd1fd0a4f28419497f9722a3daafe3b4186f6b6457e09190a35050565b60008060408385031215620001f057600080fd5b825160208401519092506001600160a01b03811681146200021057600080fd5b809150509250929050565b634e487b7160e01b600052604160045260246000fd5b600181811c908216806200024657607f821691505b6020821081036200026757634e487b7160e01b600052602260045260246000fd5b50919050565b601f821115620002bb57600081815260208120601f850160051c81016020861015620002965750805b601f850160051c820191505b81811015620002b757828155600101620002a2565b5050505b505050565b81516001600160401b03811115620002dc57620002dc6200021b565b620002f481620002ed845462000231565b846200026d565b602080601f8311600181146200032c5760008415620003135750858301515b600019600386901b1c1916600185901b178555620002b7565b600085815260208120601f198616915b828110156200035d578886015182559484019460019091019084016200033c565b50858210156200037c5787850151600019600388901b60f8161c191681555b5050505050600190811b01905550565b608051612629620003af6000396000818161051001526108a901526126296000f3fe6080604052600436106101cd5760003560e01c80636352211e116100f757806395d89b4111610095578063c87b56dd11610064578063c87b56dd146104de578063ddaa26ad146104fe578063e985e9c514610532578063f2fde38b1461058857600080fd5b806395d89b4114610460578063a22cb46514610475578063b3caf61d14610495578063b88d4fde146104cb57600080fd5b8063715018a6116100d1578063715018a6146103ef5780637d26324514610404578063833b94991461041a5780638da5cb5b1461043557600080fd5b80636352211e1461039a5780636bd64c3a146103ba57806370a08231146103cf57600080fd5b8063188ec3561161016f5780633ccfd60b1161013e5780633ccfd60b1461033d57806342842e0e1461035257806355f804b3146103655780635d1ca6311461038557600080fd5b8063188ec356146102df57806323b872dd146102f457806331cb61051461030757806332cb6b0c1461032757600080fd5b8063081812fc116101ab578063081812fc14610264578063095ea7b3146102a95780631249c58b146102be57806318160ddd146102c657600080fd5b806301ffc9a7146101d257806305f781341461020757806306fdde0314610242575b600080fd5b3480156101de57600080fd5b506101f26101ed366004611e40565b6105a8565b60405190151581526020015b60405180910390f35b34801561021357600080fd5b50610234610222366004611e5d565b600b6020526000908152604090205481565b6040519081526020016101fe565b34801561024e57600080fd5b5061025761068d565b6040516101fe9190611eec565b34801561027057600080fd5b5061028461027f366004611e5d565b61071f565b60405173ffffffffffffffffffffffffffffffffffffffff90911681526020016101fe565b6102bc6102b7366004611f28565b610789565b005b6102bc61089e565b3480156102d257600080fd5b5060025460015403610234565b3480156102eb57600080fd5b50610234610991565b6102bc610302366004611f52565b6109aa565b34801561031357600080fd5b506102bc610322366004611f8e565b610c64565b34801561033357600080fd5b506102346103e881565b34801561034957600080fd5b506102bc610cf6565b6102bc610360366004611f52565b610d83565b34801561037157600080fd5b506102bc610380366004611fca565b610da3565b34801561039157600080fd5b50610234610db8565b3480156103a657600080fd5b506102846103b5366004611e5d565b610dc8565b3480156103c657600080fd5b50610258610234565b3480156103db57600080fd5b506102346103ea36600461203c565b610dd3565b3480156103fb57600080fd5b506102bc610e55565b34801561041057600080fd5b5061023461025881565b34801561042657600080fd5b50610234662386f26fc1000081565b34801561044157600080fd5b5060005473ffffffffffffffffffffffffffffffffffffffff16610284565b34801561046c57600080fd5b50610257610e67565b34801561048157600080fd5b506102bc610490366004611f8e565b610e76565b3480156104a157600080fd5b506104aa610f0d565b604080518251815260209283015163ffffffff1692810192909252016101fe565b6102bc6104d9366004612086565b610f41565b3480156104ea57600080fd5b506102576104f9366004611e5d565b610fb1565b34801561050a57600080fd5b506102347f000000000000000000000000000000000000000000000000000000000000000081565b34801561053e57600080fd5b506101f261054d366004612180565b73ffffffffffffffffffffffffffffffffffffffff918216600090815260086020908152604080832093909416825291909152205460ff1690565b34801561059457600080fd5b506102bc6105a336600461203c565b61104e565b60007f01ffc9a7000000000000000000000000000000000000000000000000000000007fffffffff000000000000000000000000000000000000000000000000000000008316148061063b57507f80ac58cd000000000000000000000000000000000000000000000000000000007fffffffff000000000000000000000000000000000000000000000000000000008316145b8061068757507f5b5e139f000000000000000000000000000000000000000000000000000000007fffffffff000000000000000000000000000000000000000000000000000000008316145b92915050565b60606003805461069c906121b3565b80601f01602080910402602001604051908101604052809291908181526020018280546106c8906121b3565b80156107155780601f106106ea57610100808354040283529160200191610715565b820191906000526020600020905b8154815290600101906020018083116106f857829003601f168201915b5050505050905090565b600061072a82611107565b610760576040517fcf4700e400000000000000000000000000000000000000000000000000000000815260040160405180910390fd5b5060009081526007602052604090205473ffffffffffffffffffffffffffffffffffffffff1690565b600061079482610dc8565b90503373ffffffffffffffffffffffffffffffffffffffff82161461081d5773ffffffffffffffffffffffffffffffffffffffff8116600090815260086020908152604080832033845290915290205460ff1661081d576040517fcfb3b94200000000000000000000000000000000000000000000000000000000815260040160405180910390fd5b60008281526007602052604080822080547fffffffffffffffffffffffff00000000000000000000000000000000000000001673ffffffffffffffffffffffffffffffffffffffff87811691821790925591518593918516917f8c5be1e5ebec7d5bd14f71427d1e84f3dd0314c0f7b2291e5b200ac8c7c3b92591a4505050565b6108a6611148565b427f00000000000000000000000000000000000000000000000000000000000000001115610900576040517f8e265af400000000000000000000000000000000000000000000000000000000815260040160405180910390fd5b6103e861090c60015490565b10610943576040517fbe6264f700000000000000000000000000000000000000000000000000000000815260040160405180910390fd5b662386f26fc10000341015610984576040517f90bdf79500000000000000000000000000000000000000000000000000000000815260040160405180910390fd5b61098f336001611212565b565b600061099b610f0d565b6020015163ffffffff16905090565b60006109b582611350565b90508373ffffffffffffffffffffffffffffffffffffffff168173ffffffffffffffffffffffffffffffffffffffff1614610a1c576040517fa114810000000000000000000000000000000000000000000000000000000000815260040160405180910390fd5b600082815260076020526040902080543380821473ffffffffffffffffffffffffffffffffffffffff881690911417610ab95773ffffffffffffffffffffffffffffffffffffffff8616600090815260086020908152604080832033845290915290205460ff16610ab9576040517f59c896be00000000000000000000000000000000000000000000000000000000815260040160405180910390fd5b73ffffffffffffffffffffffffffffffffffffffff8516610b06576040517fea553b3400000000000000000000000000000000000000000000000000000000815260040160405180910390fd5b8015610b1157600082555b73ffffffffffffffffffffffffffffffffffffffff86811660009081526006602052604080822080547fffffffffffffffffffffffffffffffffffffffffffffffffffffffffffffffff019055918716808252919020805460010190554260a01b177c0200000000000000000000000000000000000000000000000000000000176000858152600560205260408120919091557c020000000000000000000000000000000000000000000000000000000084169003610c0057600184016000818152600560205260408120549003610bfe576001548114610bfe5760008181526005602052604090208490555b505b838573ffffffffffffffffffffffffffffffffffffffff168773ffffffffffffffffffffffffffffffffffffffff167fddf252ad1be2c89b69c2b068fc378daa952ba7f163c4a11628f55a4df523b3ef60405160405180910390a45b505050505050565b610c6c611407565b73ffffffffffffffffffffffffffffffffffffffff821660008181526009602090815260409182902080547fffffffffffffffffffffffffffffffffffffffffffffffffffffffffffffff001685151590811790915591519182527fc0e8f4beb7321816d8c73fe84fc3f3e15d6da5bf452d5740fa366f9b15a600f8910160405180910390a25050565b610cfe611407565b604051600090339047908381818185875af1925050503d8060008114610d40576040519150601f19603f3d011682016040523d82523d6000602084013e610d45565b606091505b5050905080610d80576040517f650926a600000000000000000000000000000000000000000000000000000000815260040160405180910390fd5b50565b610d9e83838360405180602001604052806000815250610f41565b505050565b610dab611407565b600a610d9e82848361224c565b6000610dc2610f0d565b51919050565b600061068782611350565b600073ffffffffffffffffffffffffffffffffffffffff8216610e22576040517f8f4eb60400000000000000000000000000000000000000000000000000000000815260040160405180910390fd5b5073ffffffffffffffffffffffffffffffffffffffff1660009081526006602052604090205467ffffffffffffffff1690565b610e5d611407565b61098f6000611488565b60606004805461069c906121b3565b33600081815260086020908152604080832073ffffffffffffffffffffffffffffffffffffffff87168085529083529281902080547fffffffffffffffffffffffffffffffffffffffffffffffffffffffffffffff001686151590811790915590519081529192917f17307eab39ab6107e8899845ad3d59bd9653f200f220920489ca2b5937696c31910160405180910390a35050565b6040805180820190915260008082526020820152366000610f2c6114fd565b91509150610f3a8282611657565b9250505090565b610f4c8484846109aa565b73ffffffffffffffffffffffffffffffffffffffff83163b15610fab57610f75848484846116ed565b610fab576040517fd1a57ed600000000000000000000000000000000000000000000000000000000815260040160405180910390fd5b50505050565b6060610fbc82611107565b610ff2576040517fa14c4b5000000000000000000000000000000000000000000000000000000000815260040160405180910390fd5b6000610ffc611866565b9050805160000361101c5760405180602001604052806000815250611047565b8061102684611875565b604051602001611037929190612367565b6040516020818303038152906040525b9392505050565b611056611407565b73ffffffffffffffffffffffffffffffffffffffff81166110fe576040517f08c379a000000000000000000000000000000000000000000000000000000000815260206004820152602660248201527f4f776e61626c653a206e6577206f776e657220697320746865207a65726f206160448201527f646472657373000000000000000000000000000000000000000000000000000060648201526084015b60405180910390fd5b610d8081611488565b6000600154821080156106875750506000908152600560205260409020547c0100000000000000000000000000000000000000000000000000000000161590565b6000611152610f0d565b905080602001516201518061116791906123c5565b63ffffffff164211156111a6576040517f2d3de50100000000000000000000000000000000000000000000000000000000815260040160405180910390fd5b80516000908152600b602052604090205442906111c690610258906123e4565b11156111fe576040517fbefbf3e900000000000000000000000000000000000000000000000000000000815260040160405180910390fd5b516000908152600b60205260409020429055565b6001546000829003611250576040517fb562e8dd00000000000000000000000000000000000000000000000000000000815260040160405180910390fd5b73ffffffffffffffffffffffffffffffffffffffff831660008181526006602090815260408083208054680100000000000000018802019055848352600590915281206001851460e11b4260a01b178317905582840190839083907fddf252ad1be2c89b69c2b068fc378daa952ba7f163c4a11628f55a4df523b3ef8180a4600183015b81811461130c57808360007fddf252ad1be2c89b69c2b068fc378daa952ba7f163c4a11628f55a4df523b3ef600080a46001016112d4565b5081600003611347576040517f2e07630000000000000000000000000000000000000000000000000000000000815260040160405180910390fd5b60015550505050565b6000816001548110156113d557600081815260056020526040812054907c0100000000000000000000000000000000000000000000000000000000821690036113d3575b8060000361104757507fffffffffffffffffffffffffffffffffffffffffffffffffffffffffffffffff01600081815260056020526040902054611394565b505b6040517fdf2d9b4200000000000000000000000000000000000000000000000000000000815260040160405180910390fd5b60005473ffffffffffffffffffffffffffffffffffffffff16331461098f576040517f08c379a000000000000000000000000000000000000000000000000000000000815260206004820181905260248201527f4f776e61626c653a2063616c6c6572206973206e6f7420746865206f776e657260448201526064016110f5565b6000805473ffffffffffffffffffffffffffffffffffffffff8381167fffffffffffffffffffffffff0000000000000000000000000000000000000000831681178455604051919092169283917f8be0079c531659141344cd1fd0a4f28419497f9722a3daafe3b4186f6b6457e09190a35050565b3660008061150c6041846123fc565b9050600061151b6004836123fc565b9050600061152a6001836123fc565b9050600080833661153c8260046123e4565b9261154993929190612413565b6115529161243d565b60e01c9050611560816118d7565b60008083366115708260016123e4565b9261157d93929190612413565b61158691612485565b60f81c905060006115988260206124cb565b6115a39060016124f5565b6115ae9060046124f5565b61ffff16905060006115c082886123fc565b90503660008083836115d287836123e4565b926115df93929190612413565b90925090503660006115f3828c8184612413565b9150915061160384848484611926565b600061161360ff891660206124cb565b61ffff1690506000611625828c6123fc565b90506000813661163585836123e4565b9261164293929190612413565b9e509e50505050505050505050505050509091565b604080518082018252600080825260208201529082146116a3576040517ffe68f10700000000000000000000000000000000000000000000000000000000815260040160405180910390fd5b60408051808201909152806116bc602060008688612413565b6116c591612512565b81526020016116d86040603e8688612413565b6116e19161243d565b60e01c90529392505050565b6040517f150b7a0200000000000000000000000000000000000000000000000000000000815260009073ffffffffffffffffffffffffffffffffffffffff85169063150b7a029061174890339089908890889060040161254e565b6020604051808303816000875af19250505080156117a1575060408051601f3d9081017fffffffffffffffffffffffffffffffffffffffffffffffffffffffffffffffe016820190925261179e91810190612597565b60015b611818573d8080156117cf576040519150601f19603f3d011682016040523d82523d6000602084013e6117d4565b606091505b508051600003611810576040517fd1a57ed600000000000000000000000000000000000000000000000000000000815260040160405180910390fd5b805181602001fd5b7fffffffff00000000000000000000000000000000000000000000000000000000167f150b7a0200000000000000000000000000000000000000000000000000000000149050949350505050565b6060600a805461069c906121b3565b606060a06040510180604052602081039150506000815280825b600183039250600a81066030018353600a90048061188f57508190037fffffffffffffffffffffffffffffffffffffffffffffffffffffffffffffffe0909101908152919050565b804211806118ef5750426118ed610258836123fc565b115b15610d80576040517f1d5e332f00000000000000000000000000000000000000000000000000000000815260040160405180910390fd5b600084846040516119389291906125b4565b6040519081900381207f19457468657265756d205369676e6564204d6573736167653a0a3332000000006020830152603c82018190529150600090605c0160405160208183030381529060405280519060200120905060006119d285858080601f0160208091040260200160405190810160405280939291908181526020018383808284376000920191909152508693925050611a3d9050565b73ffffffffffffffffffffffffffffffffffffffff811660009081526009602052604090205490915060ff16611a34576040517fec265eb800000000000000000000000000000000000000000000000000000000815260040160405180910390fd5b50505050505050565b6000806000611a4c8585611a61565b91509150611a5981611aa6565b509392505050565b6000808251604103611a975760208301516040840151606085015160001a611a8b87828585611cfa565b94509450505050611a9f565b506000905060025b9250929050565b6000816004811115611aba57611aba6125c4565b03611ac25750565b6001816004811115611ad657611ad66125c4565b03611b3d576040517f08c379a000000000000000000000000000000000000000000000000000000000815260206004820152601860248201527f45434453413a20696e76616c6964207369676e6174757265000000000000000060448201526064016110f5565b6002816004811115611b5157611b516125c4565b03611bb8576040517f08c379a000000000000000000000000000000000000000000000000000000000815260206004820152601f60248201527f45434453413a20696e76616c6964207369676e6174757265206c656e6774680060448201526064016110f5565b6003816004811115611bcc57611bcc6125c4565b03611c59576040517f08c379a000000000000000000000000000000000000000000000000000000000815260206004820152602260248201527f45434453413a20696e76616c6964207369676e6174757265202773272076616c60448201527f756500000000000000000000000000000000000000000000000000000000000060648201526084016110f5565b6004816004811115611c6d57611c6d6125c4565b03610d80576040517f08c379a000000000000000000000000000000000000000000000000000000000815260206004820152602260248201527f45434453413a20696e76616c6964207369676e6174757265202776272076616c60448201527f756500000000000000000000000000000000000000000000000000000000000060648201526084016110f5565b6000807f7fffffffffffffffffffffffffffffff5d576e7357a4501ddfe92f46681b20a0831115611d315750600090506003611e09565b8460ff16601b14158015611d4957508460ff16601c14155b15611d5a5750600090506004611e09565b6040805160008082526020820180845289905260ff881692820192909252606081018690526080810185905260019060a0016020604051602081039080840390855afa158015611dae573d6000803e3d6000fd5b50506040517fffffffffffffffffffffffffffffffffffffffffffffffffffffffffffffffe0015191505073ffffffffffffffffffffffffffffffffffffffff8116611e0257600060019250925050611e09565b9150600090505b94509492505050565b7fffffffff0000000000000000000000000000000000000000000000000000000081168114610d8057600080fd5b600060208284031215611e5257600080fd5b813561104781611e12565b600060208284031215611e6f57600080fd5b5035919050565b60005b83811015611e91578181015183820152602001611e79565b83811115610fab5750506000910152565b60008151808452611eba816020860160208601611e76565b601f017fffffffffffffffffffffffffffffffffffffffffffffffffffffffffffffffe0169290920160200192915050565b6020815260006110476020830184611ea2565b803573ffffffffffffffffffffffffffffffffffffffff81168114611f2357600080fd5b919050565b60008060408385031215611f3b57600080fd5b611f4483611eff565b946020939093013593505050565b600080600060608486031215611f6757600080fd5b611f7084611eff565b9250611f7e60208501611eff565b9150604084013590509250925092565b60008060408385031215611fa157600080fd5b611faa83611eff565b915060208301358015158114611fbf57600080fd5b809150509250929050565b60008060208385031215611fdd57600080fd5b823567ffffffffffffffff80821115611ff557600080fd5b818501915085601f83011261200957600080fd5b81358181111561201857600080fd5b86602082850101111561202a57600080fd5b60209290920196919550909350505050565b60006020828403121561204e57600080fd5b61104782611eff565b7f4e487b7100000000000000000000000000000000000000000000000000000000600052604160045260246000fd5b6000806000806080858703121561209c57600080fd5b6120a585611eff565b93506120b360208601611eff565b925060408501359150606085013567ffffffffffffffff808211156120d757600080fd5b818701915087601f8301126120eb57600080fd5b8135818111156120fd576120fd612057565b604051601f82017fffffffffffffffffffffffffffffffffffffffffffffffffffffffffffffffe0908116603f0116810190838211818310171561214357612143612057565b816040528281528a602084870101111561215c57600080fd5b82602086016020830137600060208483010152809550505050505092959194509250565b6000806040838503121561219357600080fd5b61219c83611eff565b91506121aa60208401611eff565b90509250929050565b600181811c908216806121c757607f821691505b602082108103612200577f4e487b7100000000000000000000000000000000000000000000000000000000600052602260045260246000fd5b50919050565b601f821115610d9e57600081815260208120601f850160051c8101602086101561222d5750805b601f850160051c820191505b81811015610c5c57828155600101612239565b67ffffffffffffffff83111561226457612264612057565b6122788361227283546121b3565b83612206565b6000601f8411600181146122ca57600085156122945750838201355b7fffffffffffffffffffffffffffffffffffffffffffffffffffffffffffffffff600387901b1c1916600186901b178355612360565b6000838152602090207fffffffffffffffffffffffffffffffffffffffffffffffffffffffffffffffe0861690835b8281101561231957868501358255602094850194600190920191016122f9565b5086821015612354577fffffffffffffffffffffffffffffffffffffffffffffffffffffffffffffffff60f88860031b161c19848701351681555b505060018560011b0183555b5050505050565b60008351612379818460208801611e76565b83519083019061238d818360208801611e76565b01949350505050565b7f4e487b7100000000000000000000000000000000000000000000000000000000600052601160045260246000fd5b600063ffffffff80831681851680830382111561238d5761238d612396565b600082198211156123f7576123f7612396565b500190565b60008282101561240e5761240e612396565b500390565b6000808585111561242357600080fd5b8386111561243057600080fd5b5050820193919092039150565b7fffffffff00000000000000000000000000000000000000000000000000000000813581811691600485101561247d5780818660040360031b1b83161692505b505092915050565b7fff00000000000000000000000000000000000000000000000000000000000000813581811691600185101561247d5760019490940360031b84901b1690921692915050565b600061ffff808316818516818304811182151516156124ec576124ec612396565b02949350505050565b600061ffff80831681851680830382111561238d5761238d612396565b80356020831015610687577fffffffffffffffffffffffffffffffffffffffffffffffffffffffffffffffff602084900360031b1b1692915050565b600073ffffffffffffffffffffffffffffffffffffffff80871683528086166020840152508360408301526080606083015261258d6080830184611ea2565b9695505050505050565b6000602082840312156125a957600080fd5b815161104781611e12565b8183823760009101908152919050565b7f4e487b7100000000000000000000000000000000000000000000000000000000600052602160045260246000fdfea2646970667358221220ed34764551ac2b7614719191e404e78a4296dac12a4338f270cd8074223d91d164736f6c634300080f0033",
  "devdoc": {
    "kind": "dev",
    "methods": {
      "approve(address,uint256)": {
        "details": "Gives permission to `to` to transfer `tokenId` token to another account. The approval is cleared when the token is transferred. Only a single account can be approved at a time, so approving the zero address clears previous approvals. Requirements: - The caller must own the token or be an approved operator. - `tokenId` must exist. Emits an {Approval} event."
      },
      "balanceOf(address)": {
        "details": "Returns the number of tokens in `owner`'s account."
      },
      "getApproved(uint256)": {
        "details": "Returns the account approved for `tokenId` token. Requirements: - `tokenId` must exist."
      },
      "isApprovedForAll(address,address)": {
        "details": "Returns if the `operator` is allowed to manage all of the assets of `owner`. See {setApprovalForAll}."
      },
      "name()": {
        "details": "Returns the token collection name."
      },
      "owner()": {
        "details": "Returns the address of the current owner."
      },
      "ownerOf(uint256)": {
        "details": "Returns the owner of the `tokenId` token. Requirements: - `tokenId` must exist."
      },
      "renounceOwnership()": {
        "details": "Leaves the contract without owner. It will not be possible to call `onlyOwner` functions anymore. Can only be called by the current owner. NOTE: Renouncing ownership will leave the contract without an owner, thereby removing any functionality that is only available to the owner."
      },
      "safeTransferFrom(address,address,uint256)": {
        "details": "Equivalent to `safeTransferFrom(from, to, tokenId, '')`."
      },
      "safeTransferFrom(address,address,uint256,bytes)": {
        "details": "Safely transfers `tokenId` token from `from` to `to`. Requirements: - `from` cannot be the zero address. - `to` cannot be the zero address. - `tokenId` token must exist and be owned by `from`. - If the caller is not `from`, it must be approved to move this token by either {approve} or {setApprovalForAll}. - If `to` refers to a smart contract, it must implement {IERC721Receiver-onERC721Received}, which is called upon a safe transfer. Emits a {Transfer} event."
      },
      "setApprovalForAll(address,bool)": {
        "details": "Approve or remove `operator` as an operator for the caller. Operators can call {transferFrom} or {safeTransferFrom} for any token owned by the caller. Requirements: - The `operator` cannot be the caller. Emits an {ApprovalForAll} event."
      },
      "supportsInterface(bytes4)": {
        "details": "Returns true if this contract implements the interface defined by `interfaceId`. See the corresponding [EIP section](https://eips.ethereum.org/EIPS/eip-165#how-interfaces-are-identified) to learn more about how these ids are created. This function call must use less than 30000 gas."
      },
      "symbol()": {
        "details": "Returns the token collection symbol."
      },
      "tokenURI(uint256)": {
        "details": "Returns the Uniform Resource Identifier (URI) for `tokenId` token."
      },
      "totalSupply()": {
        "details": "Returns the total number of tokens in existence. Burned tokens will reduce the count. To get the total number of tokens minted, please see {_totalMinted}."
      },
      "transferFrom(address,address,uint256)": {
        "details": "Transfers `tokenId` from `from` to `to`. Requirements: - `from` cannot be the zero address. - `to` cannot be the zero address. - `tokenId` token must be owned by `from`. - If the caller is not `from`, it must be approved to move this token by either {approve} or {setApprovalForAll}. Emits a {Transfer} event."
      },
      "transferOwnership(address)": {
        "details": "Transfers ownership of the contract to a new account (`newOwner`). Can only be called by the current owner."
      }
    },
    "version": 1
  },
  "userdoc": {
    "errors": {
      "ApprovalCallerNotOwnerNorApproved()": [
        {
          "notice": "The caller must own the token or be an approved operator."
        }
      ],
      "ApprovalQueryForNonexistentToken()": [
        {
          "notice": "The token does not exist."
        }
      ],
      "BalanceQueryForZeroAddress()": [
        {
          "notice": "Cannot query the balance for the zero address."
        }
      ],
      "MintERC2309QuantityExceedsLimit()": [
        {
          "notice": "The `quantity` minted with ERC2309 exceeds the safety limit."
        }
      ],
      "MintToZeroAddress()": [
        {
          "notice": "Cannot mint to the zero address."
        }
      ],
      "MintZeroQuantity()": [
        {
          "notice": "The quantity of tokens minted must be more than zero."
        }
      ],
      "OwnerQueryForNonexistentToken()": [
        {
          "notice": "The token does not exist."
        }
      ],
      "OwnershipNotInitializedForExtraData()": [
        {
          "notice": "The `extraData` cannot be set on an unintialized ownership slot."
        }
      ],
      "TransferCallerNotOwnerNorApproved()": [
        {
          "notice": "The caller must own the token or be an approved operator."
        }
      ],
      "TransferFromIncorrectOwner()": [
        {
          "notice": "The token must be owned by `from`."
        }
      ],
      "TransferToNonERC721ReceiverImplementer()": [
        {
          "notice": "Cannot safely transfer to a contract that does not implement the ERC721Receiver interface."
        }
      ],
      "TransferToZeroAddress()": [
        {
          "notice": "Cannot transfer to the zero address."
        }
      ],
      "URIQueryForNonexistentToken()": [
        {
          "notice": "The token does not exist."
        }
      ]
    },
    "kind": "user",
    "methods": {},
    "version": 1
  },
  "storageLayout": {
    "storage": [
      {
        "astId": 7,
        "contract": "contracts/whitelist-example/NFTMintNoSiblings.sol:NFTMintNoSiblings",
        "label": "_owner",
        "offset": 0,
        "slot": "0",
        "type": "t_address"
      },
      {
        "astId": 1295,
        "contract": "contracts/whitelist-example/NFTMintNoSiblings.sol:NFTMintNoSiblings",
        "label": "_currentIndex",
        "offset": 0,
        "slot": "1",
        "type": "t_uint256"
      },
      {
        "astId": 1297,
        "contract": "contracts/whitelist-example/NFTMintNoSiblings.sol:NFTMintNoSiblings",
        "label": "_burnCounter",
        "offset": 0,
        "slot": "2",
        "type": "t_uint256"
      },
      {
        "astId": 1299,
        "contract": "contracts/whitelist-example/NFTMintNoSiblings.sol:NFTMintNoSiblings",
        "label": "_name",
        "offset": 0,
        "slot": "3",
        "type": "t_string_storage"
      },
      {
        "astId": 1301,
        "contract": "contracts/whitelist-example/NFTMintNoSiblings.sol:NFTMintNoSiblings",
        "label": "_symbol",
        "offset": 0,
        "slot": "4",
        "type": "t_string_storage"
      },
      {
        "astId": 1305,
        "contract": "contracts/whitelist-example/NFTMintNoSiblings.sol:NFTMintNoSiblings",
        "label": "_packedOwnerships",
        "offset": 0,
        "slot": "5",
        "type": "t_mapping(t_uint256,t_uint256)"
      },
      {
        "astId": 1309,
        "contract": "contracts/whitelist-example/NFTMintNoSiblings.sol:NFTMintNoSiblings",
        "label": "_packedAddressData",
        "offset": 0,
        "slot": "6",
        "type": "t_mapping(t_address,t_uint256)"
      },
      {
        "astId": 1314,
        "contract": "contracts/whitelist-example/NFTMintNoSiblings.sol:NFTMintNoSiblings",
        "label": "_tokenApprovals",
        "offset": 0,
        "slot": "7",
        "type": "t_mapping(t_uint256,t_struct(TokenApprovalRef)1227_storage)"
      },
      {
        "astId": 1320,
        "contract": "contracts/whitelist-example/NFTMintNoSiblings.sol:NFTMintNoSiblings",
        "label": "_operatorApprovals",
        "offset": 0,
        "slot": "8",
        "type": "t_mapping(t_address,t_mapping(t_address,t_bool))"
      },
      {
        "astId": 882,
        "contract": "contracts/whitelist-example/NFTMintNoSiblings.sol:NFTMintNoSiblings",
        "label": "_signers",
        "offset": 0,
        "slot": "9",
        "type": "t_mapping(t_address,t_bool)"
      },
      {
        "astId": 3400,
        "contract": "contracts/whitelist-example/NFTMintNoSiblings.sol:NFTMintNoSiblings",
        "label": "_baseTokenURI",
        "offset": 0,
        "slot": "10",
        "type": "t_string_storage"
      },
      {
        "astId": 3404,
        "contract": "contracts/whitelist-example/NFTMintNoSiblings.sol:NFTMintNoSiblings",
        "label": "cooldown",
        "offset": 0,
        "slot": "11",
        "type": "t_mapping(t_bytes32,t_uint256)"
      }
    ],
    "types": {
      "t_address": {
        "encoding": "inplace",
        "label": "address",
        "numberOfBytes": "20"
      },
      "t_bool": {
        "encoding": "inplace",
        "label": "bool",
        "numberOfBytes": "1"
      },
      "t_bytes32": {
        "encoding": "inplace",
        "label": "bytes32",
        "numberOfBytes": "32"
      },
      "t_mapping(t_address,t_bool)": {
        "encoding": "mapping",
        "key": "t_address",
        "label": "mapping(address => bool)",
        "numberOfBytes": "32",
        "value": "t_bool"
      },
      "t_mapping(t_address,t_mapping(t_address,t_bool))": {
        "encoding": "mapping",
        "key": "t_address",
        "label": "mapping(address => mapping(address => bool))",
        "numberOfBytes": "32",
        "value": "t_mapping(t_address,t_bool)"
      },
      "t_mapping(t_address,t_uint256)": {
        "encoding": "mapping",
        "key": "t_address",
        "label": "mapping(address => uint256)",
        "numberOfBytes": "32",
        "value": "t_uint256"
      },
      "t_mapping(t_bytes32,t_uint256)": {
        "encoding": "mapping",
        "key": "t_bytes32",
        "label": "mapping(bytes32 => uint256)",
        "numberOfBytes": "32",
        "value": "t_uint256"
      },
      "t_mapping(t_uint256,t_struct(TokenApprovalRef)1227_storage)": {
        "encoding": "mapping",
        "key": "t_uint256",
        "label": "mapping(uint256 => struct ERC721A.TokenApprovalRef)",
        "numberOfBytes": "32",
        "value": "t_struct(TokenApprovalRef)1227_storage"
      },
      "t_mapping(t_uint256,t_uint256)": {
        "encoding": "mapping",
        "key": "t_uint256",
        "label": "mapping(uint256 => uint256)",
        "numberOfBytes": "32",
        "value": "t_uint256"
      },
      "t_string_storage": {
        "encoding": "bytes",
        "label": "string",
        "numberOfBytes": "32"
      },
      "t_struct(TokenApprovalRef)1227_storage": {
        "encoding": "inplace",
        "label": "struct ERC721A.TokenApprovalRef",
        "members": [
          {
            "astId": 1226,
            "contract": "contracts/whitelist-example/NFTMintNoSiblings.sol:NFTMintNoSiblings",
            "label": "value",
            "offset": 0,
            "slot": "0",
            "type": "t_address"
          }
        ],
        "numberOfBytes": "32"
      },
      "t_uint256": {
        "encoding": "inplace",
        "label": "uint256",
        "numberOfBytes": "32"
      }
    }
  }
}